:10000000F6C000000C940408D4C70000A7C7000085
:100010007AC700004DC7000020C70000F3C60000EB
:10002000C6C6000015C1000013C1000011C10000C8
:100030000FC100000DC100000BC1000009C100008C
:1000400007C1000005C1000003C1000001C100009C
:10005000FFC00000FDC00000FBC000005EC6000045
:10006000F7C0000024C60000F9C50000F1C0000080
:10007000EFC00000EDC00000EBC00000E9C00000D0
:10008000E7C00000E5C00000E3C00000E1C00000E0
:10009000DFC00000DDC00000DBC00000E0C70000E2
:1000A000D7C00000D5C00000D3C00000D1C0000000
:1000B000CFC00000CDC00000CBC00000C9C0000010
:1000C000C7C00000C5C00000C3C00000C1C0000020
:1000D000BFC00000BDC00000BBC00000B9C0000030
:1000E000B7C0000000000A0B02090C0D0E08070340
:1000F00004010000000000000000000000000000FB
:1001000000000000000000000000000000000000EF
:1001100012111000000000000000000000000000AC
:100120000000000000000000000000002200250088
:1001300028002B002E0031003400020100000501D0
:1001400008010B0100002100240027002A002D00D7
:100150003000330001010000040107010A01050518
:100160000505070508080808020202020A0A08082D
:10017000040404040101010101010101030303035B
:1001800003030303040707070C0C0C0C0C0C0C0CEA
:100190000202020206060606060606060B0B0B0BFB
:1001A0000B0B0B0B01021020200808102040102020
:1001B000408002010201080402010102040810202B
:1001C0004080804020100804020180040201804029
:1001D0002010080402010804020101020408102092
:1001E000408001020408102040805209C60B1124EF
:1001F0001FBECFEFD1E2DEBFCDBF00E00CBF23E0DA
:10020000ACE7B2E001C01D92AA3EB207E1F712E0EE
:10021000A0E0B2E0EAE6FCE100E00BBF02C007901C
:100220000D92AC37B107D9F710E0C6EFD0E000E08F
:1002300006C021970109802FFE010E94FC0BC53FDB
:10024000D10780E00807A9F70E94AC090C94240E9E
:10025000D7CE90E0FC01EC55FE4F2491825A9E4F80
:10026000FC018491882399F090E0880F991FFC018C
:10027000EC5BFE4FA591B491FC01E65DFE4F8591CC
:1002800094918FB7F894EC91E22BEC938FBF089583
:10029000089580911D0390911E03009739F481E029
:1002A00090E090931E0380931D030895019721F41D
:1002B00010921E0310921D030895E0911703F09110
:1002C0001803309729F01092140310921303199415
:1002D0000895CF93DF93AC01E0911903F0911A03D5
:1002E0003097F1F090911603809115039817C0F0A4
:1002F00090E0292F30E02617370754F4D901A4588D
:10030000BD4F240F351FE90128812C939F5FF1CF4A
:100310001092160360931503CB01DF91CF911994CE
:10032000DF91CF9108950895AF92BF92CF92DF925F
:10033000EF92FF920F931F93CF93DF936C017B019A
:100340008B01040F151FEB015E01AE18BF08C0172B
:10035000D10759F06991D601ED91FC910190F0819E
:10036000E02DC6011995892B79F7C501DF91CF9151
:100370001F910F91FF90EF90DF90CF90BF90AF90C3
:100380000895FC0144815581608171818EEC93E078
:10039000CBCFFC01538D448D252F30E0842F90E08E
:1003A000821B930B541710F0CF9608950197089570
:1003B000FC01918D828D981761F0A28DAE0FBF2F39
:1003C000B11D5D968C91928D9F5F9F73928F90E08F
:1003D00008958FEF9FEF0895FC01918D828D9817FE
:1003E00031F0828DE80FF11D858D90E008958FEF3B
:1003F0009FEF0895FC01918D228D892F90E0805C04
:100400009F4F821B91098F73992708958FE193E085
:10041000F1DF21E0892B09F420E0822F0895FC010F
:10042000A48DA80FB92FB11DA35ABF4F2C91848D55
:1004300090E001968F739927848FA689B7892C93B2
:10044000A089B1898C91837080648C93938D848D05
:10045000981306C00288F389E02D80818F7D808308
:100460000895EF92FF920F931F93CF93DF93EC01C8
:1004700081E0888F9B8D8C8D98131AC0E889F9894B
:10048000808185FF15C09FB7F894EE89FF8960834E
:10049000E889F98980818370806480839FBF81E0CF
:1004A00090E0DF91CF911F910F91FF90EF90089511
:1004B000F62E0B8D10E00F5F1F4F0F731127E02EEC
:1004C0008C8D8E110BC00FB607FCFACFE889F98925
:1004D000808185FFF5CFCE01A2DFF2CFEB8DEC0F4F
:1004E000FD2FF11DE35AFF4FF0829FB7F8940B8F59
:1004F000EA89FB8980818062D0CFCF93DF93EC01C2
:10050000888D8823B1F0AA89BB89E889F9898C9103
:1005100085FD03C0808186FD0CC00FB607FCF7CFB8
:100520008C9185FFF2CF808185FFEDCFCE0177DF03
:10053000EACFDF91CF91089580E090E0892B21F000
:1005400065DF81110E94000080E090E0892B49F076
:1005500080E090E0892B29F00E94000081110E9428
:10056000000080E090E0892B49F080E090E0892B4A
:1005700029F00E94000081110E94000080E090E0BC
:10058000892B49F080E090E0892B29F00E9400003F
:1005900081110C9400000895282F30E0F901EC51EE
:1005A000FF4F9491F901EC55FE4F4491225A3E4F72
:1005B000F9012491222309F435C0992311F19150B6
:1005C0009231F8F4E92FF0E08827E651FD4F8F4F84
:1005D0000C94FC0B1B031F03FC0213031703010302
:1005E000220328032C03320336033A034003440357
:1005F000010348034E035203809180008F7780935C
:100600008000E22FF0E0EE0FFF1FE65DFE4FA591A8
:10061000B4918FB7F894EC91611148C040954E2386
:100620004C938FBF0895809180008F7DE8CF80919B
:100630008000877FE4CF84B58F7784BDE2CF84B517
:100640008F7DFBCF8091B0008F778093B000D9CFA2
:100650008091B0008F7DF9CF809190008F7780934B
:100660009000CFCF809190008F7DF9CF8091900046
:10067000877FF5CF8091A0008F778093A000C1CFB6
:100680008091A0008F7DF9CF8091A000877FF5CF6A
:10069000809120018F7780932001B3CF809120013A
:1006A0008F7DF9CF80912001877FF5CF4E2BB8CF7A
:1006B0003FB7F8948091080390910903A0910A0331
:1006C000B0910B0326B5A89B05C02F3F19F00196EA
:1006D000A11DB11D3FBFBA2FA92F982F8827BC019C
:1006E000CD01620F711D811D911D42E0660F771FC4
:1006F000881F991F4A95D1F70895089585ED809335
:10070000BC008091BC0084FDFCCF109212030895C0
:100710002091BC02260F3327331F21323105ECF420
:1007200020911203FC0190E080E0243069F082E027
:100730000895A091BC022191AC0144565D4FA40FD5
:10074000B52FB11D2C930196861798F38091BC02AA
:10075000680F6093BC0280E0089581E008950895D9
:10076000E091160380911503E81730F4F0E0E458A7
:10077000FD4F808190E008958FEF9FEF0895909155
:100780001603809115032FEF3FEF981748F4E92FD8
:10079000F0E0E458FD4F208130E09F5F9093160316
:1007A000C90108958091150390911603891B990B37
:1007B0000895CF93DF93CB01EA01642FA9DFCE0127
:1007C000DF91CF910895CF93DF931F92CDB7DEB71E
:1007D000698361E0CE0101969BDF81E090E00F909C
:1007E000DF91CF91089590E080E0089590911503F6
:1007F00080911603981741F08CEB93E0C0DF909343
:100800001C0380931B03F2CF0895CF93DF93EC0179
:1008100060E08E81C1DE61E08E81BEDE60E08E81AF
:10082000BBDE8BE891E00197F1F7DF91CF9108955E
:10083000CF92DF92EF92FF920F931F93CF93DF93AC
:100840006C017C0187E0E80EF11CD0E0C0E0062FCF
:1008500010E0B8010C2E02C0759567950A94E2F776
:100860006170F70181917F0197DE2196C430D10537
:1008700081F7C601DF91CF911F910F91FF90EF900B
:10088000DF90CF90C2CFCF92DF92EF92FF920F9383
:100890001F93CF93DF93EC01F62E642F8C817CDEC7
:1008A0008D818F3F11F060E077DE0F2D10E08F8596
:1008B00084FF23C06E0187E0C80ED11CF12CE12C0F
:1008C000B8010E2C02C0759567950A94E2F7617025
:1008D000F60181916F0160DEFFEFEF1AFF0A88E0F9
:1008E000E816F10469F7CE01DF91CF911F910F91C6
:1008F000FF90EF90DF90CF9088CFB80184E075959E
:1009000067958A95E1F7CE0193DF6F2DCE01DF91D8
:10091000CF911F910F91FF90EF90DF90CF9088CFF4
:1009200040E0682F8EEC93E0AECFCF93DF93823020
:1009300029F49091DD0398609093DD038093E103A7
:100940001092E20380E48093E30380E18093E40368
:1009500080E58093E5038091D2037BDC8091D30313
:100960008F3F09F076DC8091D40373DCCEECD3E0CA
:100970009E012E5C33408091DD0384FD09C084E03C
:1009800090E021962817390734F48E8162DCF0CF8D
:1009900088E090E0F6CF8BE39DE00197F1F760E00F
:1009A0008091D203F9DD60E08091D403F5DD809180
:1009B000D3038F3F11F060E0EFDD8091DD0384FD14
:1009C00031C063E08EEC93E033DFCBE4D6E4CE01BC
:1009D0000197F1F763E08EEC93E02ADF2197F1F7BE
:1009E00063E08EEC93E024DF83E592E00197F1F77A
:1009F00062E08EEC93E01CDF8091DD03806290DF8B
:100A000084E08093DE038CE08BDF81E089DF8BE381
:100A10009FE10197F1F782E08093DF0386E0DF91A9
:100A2000CF917ECF80627CDF8BE496E40197F1F773
:100A30008091DD03806274DF83E592E00197F1F736
:100A40008091DD0380626CDFD7CF843008F083E0D3
:100A50009091E103891710F08FEF890FE82FF0E0F4
:100A6000E253FC4F848980685BCF41E00CDF81E07A
:100A700090E00895CF93DF93EC01888199810097EE
:100A800009F05ED7198218821D821C821B821A828D
:100A9000DF91CF910895FC0180819181009709F049
:100AA0004FC708950F931F93CF93DF93EC01888175
:100AB0009981009759F02A813B812617370730F03A
:100AC00081E0DF91CF911F910F9108958B016F5FAE
:100AD0007F4FBFD7009759F0998388831B830A8380
:100AE0002C813D81232B61F7FC011082E9CF80E04E
:100AF000E8CFEF92FF920F931F93CF93DF9361158F
:100B0000710541F480E0DF91CF911F910F91FF902B
:100B1000EF90089541155105A9F07B01EC010C817E
:100B20001D81040F151FB801BDDF882359F32881EB
:100B300039818C819D81B701820F931F0E940E0E17
:100B40001D830C8381E0DFCFCF93DF93EC01FB01AA
:100B500001900020E9F73197AF01461B570BC9DF21
:100B6000811102C0CE0186DFCE01DF91CF910895C1
:100B7000CF93DF93EC01FB0144815581608171814A
:100B8000B8DF811102C0CE0175DFCE01DF91CF91B8
:100B90000895EF92FF920F931F93CF93DF93EC0191
:100BA0007B018A01BA017EDF81110AC0CE0162DFBA
:100BB000CE01DF91CF911F910F91FF90EF9008959B
:100BC0001D830C83B701888199810E940E0EF0CF9E
:100BD000EF92FF920F931F93CF93DF93CDB7DEB7C2
:100BE00062970FB6F894DEBF0FBECDBF8C01CB016C
:100BF000F8011182108213821282158214824AE057
:100C00009E012F5F3F4F7901B901C3D5F7010190D4
:100C10000020E9F73197AF014E195F09B701C8010C
:100C2000B8DF62960FB6F894DEBF0FBECDBFDF917E
:100C3000CF911F910F91FF90EF900895FC011182C9
:100C400010821382128215821482FB01019000200F
:100C5000E9F73197AF01461B570B9BCF1F920F92BD
:100C60000FB60F9211240BB60F922F933F934F9311
:100C70005F936F937F938F939F93AF93BF93EF9304
:100C8000FF938FE193E0CBDBFF91EF91BF91AF91A9
:100C90009F918F917F916F915F914F913F912F9194
:100CA0000F900BBE0F900FBE0F901F9018951F92C4
:100CB0000F920FB60F9211240BB60F922F938F93B2
:100CC0009F93EF93FF93E0912F03F0913003808186
:100CD000E0913503F091360382FD1DC09081809133
:100CE00038038F5F8F7320913903821741F0E091B1
:100CF0003803F0E0E15EFC4F958F80933803FF915D
:100D0000EF919F918F912F910F900BBE0F900FBE7F
:100D10000F901F9018958081F2CF1F920F920FB6FF
:100D20000F9211242F933F938F939F93AF93BF9371
:100D30008091040390910503A0910603B0910703ED
:100D40003091030323E0230F2D3758F50196A11DA1
:100D5000B11D209303038093040390930503A09394
:100D60000603B09307038091080390910903A091B3
:100D70000A03B0910B030196A11DB11D80930803D6
:100D800090930903A0930A03B0930B03BF91AF9113
:100D90009F918F913F912F910F900FBE0F901F90B9
:100DA000189526E8230F0296A11DB11DD2CF1F92E0
:100DB0000F920FB60F9211240BB60F922F933F9301
:100DC0004F935F936F937F938F939F93AF93BF9353
:100DD000EF93FF93E0910E02F0910F021995FF91AE
:100DE000EF91BF91AF919F918F917F916F915F91A3
:100DF0004F913F912F910F900BBE0F900FBE0F9010
:100E00001F9018951F920F920FB60F9211240BB6D8
:100E10000F922F933F934F935F936F937F938F9393
:100E20009F93AF93BF93EF93FF93E0910C02F091E8
:100E30000D021995FF91EF91BF91AF919F918F9105
:100E40007F916F915F914F913F912F910F900BBECA
:100E50000F900FBE0F901F9018951F920F920FB614
:100E60000F9211240BB60F922F933F934F935F93E2
:100E70006F937F938F939F93AF93BF93EF93FF9362
:100E8000E0910202F09103021995FF91EF91BF9159
:100E9000AF919F918F917F916F915F914F913F9112
:100EA0002F910F900BBE0F900FBE0F901F901895B3
:100EB0001F920F920FB60F9211240BB60F922F9321
:100EC0003F934F935F936F937F938F939F93AF93D2
:100ED000BF93EF93FF93E0910002F0910102199507
:100EE000FF91EF91BF91AF919F918F917F916F9102
:100EF0005F914F913F912F910F900BBE0F900FBEBE
:100F00000F901F9018951F920F920FB60F921124F9
:100F10000BB60F922F933F934F935F936F937F93F3
:100F20008F939F93AF93BF93EF93FF93E0910A0248
:100F3000F0910B021995FF91EF91BF91AF919F91A5
:100F40008F917F916F915F914F913F912F910F9072
:100F50000BBE0F900FBE0F901F9018951F920F920F
:100F60000FB60F9211240BB60F922F933F934F930E
:100F70005F936F937F938F939F93AF93BF93EF9301
:100F8000FF93E0910802F09109021995FF91EF910A
:100F9000BF91AF919F918F917F916F915F914F9191
:100FA0003F912F910F900BBE0F900FBE0F901F908F
:100FB00018951F920F920FB60F9211240BB60F9235
:100FC0002F933F934F935F936F937F938F939F9351
:100FD000AF93BF93EF93FF93E0910602F091070266
:100FE0001995FF91EF91BF91AF919F918F917F9153
:100FF0006F915F914F913F912F910F900BBE0F908A
:101000000FBE0F901F9018951F920F920FB60F9260
:1010100011240BB60F922F933F934F935F936F93CF
:101020007F938F939F93AF93BF93EF93FF93E09141
:101030000402F09105021995FF91EF91BF91AF91D4
:101040009F918F917F916F915F914F913F912F91E0
:101050000F900BBE0F900FBE0F901F9018951F9210
:101060000F920FB60F9211240BB60F922F933F934E
:101070004F935F936F937F938F939F93AF93BF93A0
:10108000EF93FF938091B900887F803609F44CC0BC
:1010900008F03FC0883209F4A8C028F5803109F46F
:1010A0009CC0C8F4882309F4FAC0883009F495C0BC
:1010B000FF91EF91BF91AF919F918F917F916F9130
:1010C0005F914F913F912F910F900BBE0F900FBEEC
:1010D0000F901F901895883109F487C0803241F72E
:1010E0008093DF0214C0803409F49CC040F4803344
:1010F000B9F38833E9F68093DF0285ECAFC0803521
:1011000009F484C0883509F495C0883489F6F6DA84
:10111000CFCF883909F48CC038F5883729F050F4DE
:10112000883611F0803721F683E080931203109205
:10113000DE0257C0883809F47BC0803919F0803846
:1011400009F0B6CF8091DE02803208F071C0E091E4
:10115000DE0281E08E0F8093DE028091BB00F0E022
:10116000E254FD4F80833DC0803B39F0E0F4803A8B
:1011700009F479C0883A09F09BCF84E08093120388
:101180001092BD021092BC02E0910E03F0910F0389
:1011900019958091BC0281110FC081E08093BC023F
:1011A00010929C0209C0803C09F4A7CF883C09F446
:1011B000A4CF883B09F07CCFE091BD0281E08E0F87
:1011C0008093BD02F0E0E456FD4F80818093BB0028
:1011D0009091BD028091BC0229C08091020380934E
:1011E000BB0085EC8093BC0063CF9091010380919C
:1011F0000003981758F5E091010381E08E0F80936A
:101200000103F0E0E052FD4F8081E9CFE09101035E
:1012100081E08E0F809301038091BB00F0E0E052EB
:10122000FD4F808390910103809100039817C8F2CD
:1012300085E8D8CFE091010381E08E0F8093010310
:101240008091BB00F0E0E052FD4F8083809111035C
:1012500081115DCF81E08093100384EA8093BC000C
:101260001092120325CF85EC8093BC0010921203DC
:101270008091DE02803230F4E091DE02F0E0E25450
:10128000FD4F10826091DE0270E0E0910C03F0915E
:101290000D038EEB92E019951092DE0209CF1092A9
:1012A000DF0235CFEFE1F3E01382128288EE93E0A4
:1012B000A0E0B0E084839583A683B7832CE132E07D
:1012C0003183208325EC30E03587248724EC30E01F
:1012D0003787268720EC30E0318B208B21EC30E003
:1012E000338B228B22EC30E0358B248B26EC30E0E4
:1012F000378B268B118E128E138E148EECEBF3E04F
:101300001382128284839583A683B7838EE292E050
:1013100091838083EEECF3E01382128280E492E00A
:10132000918380838DE084838FEF85838CE0868337
:101330008BE087838AE0808789E0818788E08287E5
:101340001386148615861686178681E0EEDA68E61F
:1013500072E088EC93E072CCCF93DF93CDB7DEB729
:1013600062970FB6F894DEBF0FBECDBF789484B5F8
:10137000826084BD84B5816084BD85B5826085BD91
:1013800085B5816085BD80916E00816080936E001F
:101390001092810080918100826080938100809111
:1013A00081008160809381008091800081608093C2
:1013B00080008091B10084608093B1008091B00082
:1013C00081608093B0008091910082608093910051
:1013D0008091910081608093910080919000816064
:1013E000809390008091A10082608093A100809101
:1013F000A10081608093A1008091A0008160809312
:10140000A0008091210182608093210180912101BF
:10141000816080932101809120018160809320016F
:1014200080917A00846080937A0080917A00826053
:1014300080937A0080917A00816080937A00809115
:101440007A00806880937A001092C100109216038F
:1014500010921503109214031092130310921203AA
:1014600081E0809311031092100361E084E194D82D
:1014700061E085E191D88091B9008E7F8093B900B9
:101480008091B9008D7F8093B90088E48093B80083
:1014900085E48093BC008DE591E090930F038093E9
:1014A0000E0389E691E090930D0380930C0382E094
:1014B0008093BA0028E431E0309318032093170397
:1014C00026EF33E030931A0320931903E0912F03A2
:1014D000F09130038083E0912B03F0912C03108274
:1014E000E0912D03F0912E038FEC8083109237034F
:1014F000E0913303F091340386E08083E09131037F
:10150000F0913203808180618083E0913103F0911A
:101510003203808188608083E0913103F09132034F
:10152000808180688083E0913103F0913203808173
:101530008F7D808382E0F9D980E087DA89E491E0C9
:10154000909301028093000280916A0083608093EF
:101550006A00EC9A8E01095F1F4F9BE3E92E9FE121
:10156000F92E68E472E0CE010D9668DB80911002DE
:1015700090911102019709F0B3C068E572E0CE01C5
:1015800001965CDBBE01635F7F4FCE010196F0DA0E
:1015900018861F821A8619861C861B86801791075B
:1015A00051F0FC01608171816115710521F0448168
:1015B0005581C801EEDA8091C8039091C903009764
:1015C00009F477C06F8178856115710509F470C0E1
:1015D0004091CA035091CB032B853C85421753079A
:1015E00008F466C01BD38B859C859093CD038093B4
:1015F000CC031C861B86C8014EDACE0101964BDA5D
:101600001092110210921002CE010D9644DA81E080
:1016100020911D0330911E03232B09F080E015DA81
:1016200060911B0370911C036F3171050CF48CC029
:10163000CE010196CDDA66E672E0C801FFDABE019E
:101640006F5F7F4FC80194DA69E672E07DDA0E942D
:10165000C101C80120DACE0101961DDA29D82B017B
:101660003C0188EC882E912CA12CB12C21D8641936
:10167000750986099709683E734081059105B0F3A5
:10168000F1E08F1A9108A108B10828EE420E23E07C
:10169000521E611C711C81149104A104B10431F724
:1016A00081E03ED9C7010197F1F70E949C0259CF12
:1016B00047D18F8198859093C9038093C80389850A
:1016C0009A859093CB038093CA038B859C859093D6
:1016D000CD038093CC0318861F821A86198689CF82
:1016E0004091CC035091CD0341155105C9F0809133
:1016F000C8039091C903415051095093CD034093C1
:10170000CC03BC016F5F7F4F90D2E091C803F09192
:10171000C9038091CC039091CD03E80FF91F10828B
:1017200080911D0392D988EC93E00E94C1018091C1
:10173000CC039091CD038130910509F065CF909352
:1017400011028093100260CFCB014997069778F47D
:10175000CE0101963DDA64E672E0C8016FDABE019F
:101760006F5F7F4FC80104DA6DE672E06FCFCE0184
:1017700001962EDA65E672E0C80160DABE016F5F9D
:101780007F4FC801F5D964E772E060CF88EC93E041
:1017900082C9BB274A3031F4992322F4BDE29095E7
:1017A00081959F4F01C0BB27FB015527AA27880FB2
:1017B000991FAA1FA41710F0A41B83955051B9F7C5
:1017C000A05DAA3308F0A95DA193009779F7B11144
:1017D000B1931192CB0100C0DC01FC01672F719124
:1017E0007723E1F7329704C07C916D937083629107
:1017F000AE17BF07C8F30895EE0FFF1F881F8BBFFA
:101800000790F691E02D19940F931F93CF93DF93D8
:101810008230910510F482E090E0E091E803F091CD
:10182000E90330E020E0B0E0A0E0309799F4211522
:10183000310509F44AC0281B390B24303105D8F58D
:101840008A819B816115710589F1FB0193838283F4
:10185000FE0111C04081518102811381481759074F
:10186000E0F04817590799F4109761F012960C931D
:10187000129713961C933296CF01DF91CF911F914F
:101880000F9108950093E8031093E903F4CF211515
:10189000310551F04217530738F0A901DB019A01D5
:1018A000BD01DF01F801C1CFEF01F9CF9093E9034A
:1018B0008093E803CDCFFE01E20FF31F8193919354
:1018C0002250310939832883D7CF2091E603309104
:1018D000E703232B41F42091140230911502309339
:1018E000E7032093E60320911202309113022115A1
:1018F000310541F42DB73EB74091160250911702C1
:10190000241B350BE091E603F091E703E217F307A0
:10191000A0F42E1B3F0B2817390778F0AC014E5F5F
:101920005F4F2417350748F04E0F5F1F5093E703B2
:101930004093E603819391939FCFF0E0E0E09CCF4A
:10194000CF93DF930097E9F0FC0132971382128264
:10195000A091E803B091E903ED0130E020E0109799
:10196000A1F420813181820F931F2091E6033091F1
:10197000E7032817390709F061C0F093E703E09304
:10198000E603DF91CF910895EA01CE17DF07E8F56E
:101990004A815B819E0141155105B1F7E901FB8345
:1019A000EA8349915991C40FD51FEC17FD0761F4E3
:1019B000808191810296840F951FE9019983888324
:1019C000828193819B838A83F0E0E0E012968D917F
:1019D0009C9113970097B9F52D913C911197CD01EA
:1019E0000296820F931F2091E6033091E703281798
:1019F000390739F6309751F51092E9031092E80350
:101A0000B093E703A093E603BCCFD383C2834081A6
:101A10005181840F951FC817D90761F44E5F5F4F3E
:101A200088819981480F591F518340838A819B8106
:101A3000938382832115310509F0B0CFF093E90338
:101A4000E093E8039ECFFD01DC01C0CF1382128238
:101A5000D7CF4F925F926F927F928F929F92AF9269
:101A6000BF92CF92DF92EF92FF920F931F93CF938B
:101A7000DF938C01009791F4CB01DF91CF911F91FF
:101A80000F91FF90EF90DF90CF90BF90AF909F901D
:101A90008F907F906F905F904F90B6CEFC01E60FD5
:101AA000F71F9C0122503109E217F30708F4AAC07E
:101AB000D901CD91DC911197C617D70718F1C53020
:101AC000D10570F0CE0104978617970748F0C61B22
:101AD000D70B2297C193D1936D937C93CF0130DFC5
:101AE000C801DF91CF911F910F91FF90EF90DF9090
:101AF000CF90BF90AF909F908F907F906F905F90AE
:101B00004F9008955B01AC1ABD0A4C018C0E9D1ECE
:101B1000A091E803B091E903512C412CF12CE12C68
:101B2000109731F58091E6039091E70388159905A8
:101B300009F05CC04616570608F058C080911202A2
:101B400090911302009741F48DB79EB74091160211
:101B500050911702841B950BE817F90708F052C043
:101B6000F093E703E093E603F90171836083B8CF54
:101B70008D919C91119712966C90129713967C9070
:101B80001397A815B90559F56C0142E0C40ED11C94
:101B9000CA14DB0420F1AC014A195B09DA01129680
:101BA000159780F06282738251834083D9016D93CF
:101BB0007C93E114F10471F0D7011396FC93EE933A
:101BC00012978ECF22968C0F9D1FF90191838083EF
:101BD000F301EFCFF093E903E093E80381CF4816D8
:101BE000590608F42C017D01D3019ACFCB010CDEFC
:101BF0007C01009739F0AE01B80107D0C801A0DE22
:101C000087016ECF10E000E06BCFFB01DC0102C06A
:101C100001900D9241505040D8F70895FB01DC012E
:101C200001900D920020E1F70895FB01DC01415085
:101C3000504048F001900D920020C9F701C01D925C
:101C400041505040E0F7089510E0C6EFD0E000E0CA
:101C500005C0802FFE01D0DD2196011DC73FD107B1
:0A1C600080E00807B1F7F894FFCF09
:101C6A007D037D037D037D037D037D037D037D036A
:101C7A0001000000EA038000000000003102940124
:101C8A00C9017D02FA01D801EC0100000000E3035A
:101C9A00D903F303AF03D203BF03B003000000006C
:101CAA0035059401F3039301414244554C4C414894
:101CBA002054554E43455200202020202020202029
:101CCA0020202020202020200020434F4B20534951
:0C1CDA0043414B00204E4F524D414C0046
:00000001FF
