:10000000F5C0000021C100001FC100001DC100009B
:100010001BC1000019C1000017C1000015C100007C
:1000200013C1000011C100000FC100000DC100008C
:100030000BC1000009C1000007C1000005C100009C
:1000400003C1000001C10000FFC00000FDC00000AE
:10005000FBC00000F9C00000F7C00000EAC30000C8
:10006000F3C00000B0C3000085C30000EDC0000075
:10007000EBC00000E9C00000E7C00000E5C00000E0
:10008000E3C00000E1C00000DFC00000DDC00000F0
:10009000DBC00000D9C00000D7C0000014C40000BD
:1000A000D3C00000D1C00000CFC00000CDC0000010
:1000B000CBC00000C9C00000C7C00000C5C0000020
:1000C000C3C00000C1C00000BFC00000BDC0000030
:1000D000BBC00000B9C00000B7C00000B5C0000040
:1000E000B3C0000000002100240027002A002D00DA
:1000F0003000330001010000040107010A01000083
:100100002200250028002B002E00310034000201BF
:100110000000050108010B01050505050705080894
:100120000808020202020A0A080804040404010181
:100130000101010101010303030303030303040796
:1001400007070C0C0C0C0C0C0C0C0202020206062D
:100150000606060606060B0B0B0B0B0B0B0B010220
:1001600010202008081020401020408002010201C9
:100170000804020101020408102040808040201081
:1001800008040201800402018040201008040201DA
:100190000804020101020408102040800102040842
:1001A0001020408000000A0B02090C0D0E08070306
:1001B000040100000000000000000000000000003A
:1001C000000000000000000000000000000000002F
:1001D00012111000000000000000000000000000EC
:1001E00000000000000000000000860511241FBE72
:1001F000CFEFD1E2DEBFCDBF00E00CBF12E0A0E048
:10020000B2E0E2EFF1E100E00BBF02C007900D9217
:10021000A432B107D9F723E0A4E2B2E001C01D92F5
:10022000AC38B207E1F710E0C6EFD0E000E005C05F
:1002300021970109802FFE01D2D7C53FD10780E069
:100240000807B1F79CD4D3C7DBCE282F30E0F901E3
:10025000EC55FE4F9491F901E25AFE4F4491285E0D
:100260003E4FF9012491222309F431C0992309F169
:1002700091509231F0F4E92FF0E08827EE5BFE4FC9
:100280008F4FADC770017401540168016C015901B1
:1002900077017D01810187018B018F019501990112
:1002A00059019D01A301A701809180008F77809360
:1002B0008000E22FF0E0EE0FFF1FE250FF4FA5910C
:1002C000B4918FB7F894EC914E2B4C938FBF089557
:1002D000809180008F7DEBCF80918000877FE7CF7A
:1002E00084B58F7784BDE5CF84B58F7DFBCF8091BA
:1002F000B0008F778093B000DCCF8091B0008F7D0D
:10030000F9CF809190008F7780939000D2CF809129
:1003100090008F7DF9CF80919000877FF5CF8091FD
:10032000A0008F778093A000C4CF8091A0008F7D24
:10033000F9CF8091A000877FF5CF809120018F7742
:1003400080932001B6CF809120018F7DF9CF8091DD
:100350002001877FF5CF08950895AF92BF92CF9285
:10036000DF92EF92FF920F931F93CF93DF936C0175
:100370007B018B01040F151FEB015E01AE18BF0856
:10038000C017D10759F06991D601ED91FC91019008
:10039000F081E02DC6011995892B79F7C501DF9110
:1003A000CF911F910F91FF90EF90DF90CF90BF9072
:1003B000AF900895FC01538D448D252F30E0842F9C
:1003C00090E0821B930B541710F0CF96089501977D
:1003D0000895FC01918D828D981761F0A28DAE0F6A
:1003E000BF2FB11D5D968C91928D9F5F9F73928FF1
:1003F00090E008958FEF9FEF0895FC01918D828D1D
:10040000981731F0828DE80FF11D858D90E00895E9
:100410008FEF9FEF0895FC01918D228D892F90E041
:10042000805C9F4F821B91098F739927089583EEFB
:1004300092E0F1DF21E0892B09F420E0822F08957A
:10044000FC01A48DA80FB92FB11DA35ABF4F2C9149
:10045000848D90E001968F739927848FA689B78940
:100460002C93A089B1898C91837080648C93938D37
:10047000848D981306C00288F389E02D80818F7DDA
:1004800080830895EF92FF920F931F93CF93DF9392
:10049000EC0181E0888F9B8D8C8D98131AC0E889C0
:1004A000F989808185FF15C09FB7F894EE89FF898F
:1004B0006083E889F98980818370806480839FBF2D
:1004C00081E090E0DF91CF911F910F91FF90EF902D
:1004D0000895F62E0B8D10E00F5F1F4F0F7311273D
:1004E000E02E8C8D8E110BC00FB607FCFACFE88979
:1004F000F989808185FFF5CFCE01A2DFF2CFEB8DA8
:10050000EC0FFD2FF11DE35AFF4FF0829FB7F894D7
:100510000B8FEA89FB8980818062D0CFCF93DF93F4
:10052000EC01888D8823B1F0AA89BB89E889F98913
:100530008C9185FD03C0808186FD0CC00FB607FC41
:10054000F7CF8C9185FFF2CF808185FFEDCFCE0173
:1005500077DFEACFDF91CF91089580E090E0892B9B
:1005600021F065DF81110E94000080E090E0892B7E
:1005700049F080E090E0892B29F00E940000811171
:100580000E94000080E090E0892B49F080E090E03C
:10059000892B29F00E94000081110E94000080E058
:1005A00090E0892B49F080E090E0892B29F00E94AF
:1005B000000081110C94000008953FB7F8948091D9
:1005C0008C0290918D02A0918E02B0918F0226B57F
:1005D000A89B05C02F3F19F00196A11DB11D3FBF7B
:1005E000BA2FA92F982F8827BC01CD01620F711D4A
:1005F000811D911D42E0660F771F881F991F4A9544
:10060000D1F7089585ED8093BC008091BC0084FDF6
:10061000FCCF1092BC02089520916402260F33276C
:10062000331F21323105ECF42091BC02FC0190E033
:1006300080E0243069F082E00895A0916402219165
:10064000AC014C5B5D4FA40FB52FB11D2C930196EF
:10065000861798F380916402680F6093640280E0CB
:10066000089581E008950895E091950280919402A3
:10067000E81730F4F0E0EC5DFD4F808190E00895E4
:100680008FEF9FEF089590919502809194022FEF44
:100690003FEF981748F4E92FF0E0EC5DFD4F208123
:1006A00030E09F5F90939502C90108958091940274
:1006B00090919502891B990B0895CF92DF92EF924A
:1006C000FF920F931F93CF93DF937C01CB018A019D
:1006D0002091BD02222389F0EB016B01C40ED51ECF
:1006E000CC15DD0561F06991D701ED91FC91019088
:1006F000F081E02DC7011995F3CF642F8DDFC8017C
:10070000DF91CF911F910F91FF90EF90DF90CF90ED
:100710000895CF93DF931F92CDB7DEB76983209101
:10072000BD022223F9F02091E002203258F021E0AE
:1007300030E0FC013383228390E080E00F90DF9172
:10074000CF9108958091BE02E82FF0E0E154FD4F73
:10075000998190838F5F8093BE028093E00281E055
:1007600090E0ECCF61E0CE01019656DFF8CF90E04B
:1007700080E008951F920F920FB60F9211240BB6CE
:100780000F922F933F934F935F936F937F938F932A
:100790009F93AF93BF93EF93FF9383EE92E050DE6E
:1007A000FF91EF91BF91AF919F918F917F916F9149
:1007B0005F914F913F912F910F900BBE0F900FBE05
:1007C0000F901F9018951F920F920FB60F92112441
:1007D0000BB60F922F938F939F93EF93FF93E0911C
:1007E000F302F091F4028081E091F902F091FA02B3
:1007F00082FD1DC090818091FC028F5F8F732091DC
:10080000FD02821741F0E091FC02F0E0ED51FD4F56
:10081000958F8093FC02FF91EF919F918F912F9183
:100820000F900BBE0F900FBE0F901F9018958081F8
:10083000F2CF1F920F920FB60F9211242F933F9376
:100840008F939F93AF93BF93809188029091890279
:10085000A0918A02B0918B023091870223E0230F8E
:100860002D3758F50196A11DB11D20938702809365
:10087000880290938902A0938A02B0938B028091A0
:100880008C0290918D02A0918E02B0918F02019600
:10089000A11DB11D80938C0290938D02A0938E02B6
:1008A000B0938F02BF91AF919F918F913F912F9104
:1008B0000F900FBE0F901F90189526E8230F0296F9
:1008C000A11DB11DD2CF1F920F920FB60F9211240E
:1008D0000BB60F922F933F934F935F936F937F933A
:1008E0008F939F93AF93BF93EF93FF938091B90042
:1008F000887F803609F44CC008F03FC0883209F484
:10090000A8C028F5803109F49CC0C8F4882309F4F4
:10091000FAC0883009F495C0FF91EF91BF91AF9173
:100920009F918F917F916F915F914F913F912F9107
:100930000F900BBE0F900FBE0F901F90189588312F
:1009400009F487C0803241F78093BA0214C0803422
:1009500009F49CC040F48033B9F38833E9F68093FE
:10096000BA0285ECAFC0803509F484C0883509F43B
:1009700095C0883489F646DECFCF883909F48CC01B
:1009800038F5883729F050F4883611F0803721F691
:1009900083E08093BC021092860257C0883809F425
:1009A0007BC0803919F0803809F0B6CF809186027B
:1009B000803208F071C0E091860281E08E0F809352
:1009C00086028091BB00F0E0EA59FD4F80833DC074
:1009D000803B39F0E0F4803A09F479C0883A09F0B4
:1009E0009BCF84E08093BC02109265021092640257
:1009F000E0919202F0919302199580916402811125
:100A00000FC081E0809364021092440209C0803CD0
:100A100009F4A7CF883C09F4A4CF883B09F07CCF28
:100A2000E091650281E08E0F80936502F0E0EC5B5F
:100A3000FD4F80818093BB0090916502809164029C
:100A400029C0809197028093BB0085EC8093BC0005
:100A500063CF9091B9028091B802981758F5E09150
:100A6000B90281E08E0F8093B902F0E0E856FD4FA5
:100A70008081E9CFE091B90281E08E0F8093B902C5
:100A80008091BB00F0E0E856FD4F80839091B90261
:100A90008091B8029817C8F285E8D8CFE091B902E2
:100AA00081E08E0F8093B9028091BB00F0E0E856A0
:100AB000FD4F80838091BB0281115DCF81E08093E7
:100AC000960284EA8093BC001092BC0225CF85EC8C
:100AD0008093BC001092BC0280918602803230F478
:100AE000E0918602F0E0EA59FD4F108260918602A3
:100AF00070E0E0919002F091910286E692E0199503
:100B00001092860209CF1092BA0235CFE3EEF2E0DE
:100B10001382128288EE93E0A0E0B0E08483958394
:100B2000A683B78324E032E03183208325EC30E0D4
:100B30003587248724EC30E03787268720EC30E0A7
:100B4000318B208B21EC30E0338B228B22EC30E098
:100B5000358B248B26EC30E0378B268B118E128E52
:100B6000138E148EE0E8F3E013821282848395835F
:100B7000A683B78386E192E0918380830895789479
:100B800084B5826084BD84B5816084BD85B5826092
:100B900085BD85B5816085BD80916E008160809343
:100BA0006E001092810080918100826080938100AC
:100BB00080918100816080938100809180008160BC
:100BC000809380008091B10084608093B100809117
:100BD000B00081608093B00080919100826080932A
:100BE00091008091910081608093910080919000AC
:100BF0008160809390008091A10082608093A10029
:100C00008091A10081608093A1008091A00081600B
:100C10008093A000809121018260809321018091C6
:100C20002101816080932101809120018160809366
:100C3000200180917A00846080937A0080917A000C
:100C4000826080937A0080917A00816080937A003C
:100C500080917A00806880937A001092C100E3EA64
:100C6000F1E02491EDE5F1E084918823C1F090E07A
:100C7000880F991FFC01EC51FF4FC591D491FC01E5
:100C8000E250FF4FA591B4919FB7F8948881E22F6D
:100C9000E0958E2388838C91E823EC939FBF10927C
:100CA0009502109294021092BE021092E0021092ED
:100CB000BC0281E08093BB021092960284E1C5DA07
:100CC00085E1C3DA8091B9008E7F8093B90080916D
:100CD000B9008D7F8093B90088E48093B80085E4E3
:100CE0008093BC008BEA91E09093930280939202F0
:100CF0008CEA91E09093910280939002E091F3024C
:100D0000F091F40282E08083E091EF02F091F00232
:100D10001082E091F102F091F2028FEC8083109248
:100D2000FB02E091F702F091F80286E08083E09107
:100D3000F502F091F602808180618083E091F502F6
:100D4000F091F602808188608083E091F502F09155
:100D5000F602808180688083E091F502F091F602CE
:100D600080818F7D8083D7E4C1E012E00FEF95EEA4
:100D7000B92E25ECA22E80917B00886080937B00A9
:100D8000D0937C0080917A00806480937A00809177
:100D90007A0086FDFCCF8091780060917900762FF3
:100DA000682F072E000C880B990B2AD120E030EC1D
:100DB0004FE754E48AD020E030E44CE955E4ACD16C
:100DC00020E030E040E251E480D0E7D06093E102DF
:100DD0007093E202C093BD02C093DF021092BE0284
:100DE0001092E00280E893E094DC9091E00291326E
:100DF000D0F58091BC028111FCCF1093BC02C0934E
:100E0000BB020093BA021092B9029093B802EFEBC2
:100E1000F2E0A8E9B2E0981351C0109297028091D5
:100E2000970282608093970280919602813009F048
:100E300049C010929602809197028093BB008091E6
:100E4000BC0083FDF8CFA092BC008091BC02823030
:100E5000E1F38091BA028F3F31F08091BA02803283
:100E600011F08091BA021092BE021092E00210922C
:100E7000BD02A3DB2B013C0188EEC82E83E0D82EF7
:100E8000E12CF12C9ADB6419750986099709683EF3
:100E9000734081059105B0F321E0C21AD108E10841
:100EA000F10888EE480E83E0581E611C711CC114C5
:100EB000D104E104F10431F750DB5DCF21912D9392
:100EC0008F5FA9CFB092BC00C0CF0CD0EBC0E3D0F5
:100ED00040F0DAD030F021F45F3F19F0CCC051116E
:100EE00015C1CFC0F0D098F39923C9F35523B1F3BE
:100EF000951B550BBB27AA2762177307840738F089
:100F00009F5F5F4F220F331F441FAA1FA9F333D0E7
:100F10000E2E3AF0E0E830D091505040E695001C9B
:100F2000CAF729D0FE2F27D0660F771F881FBB1F57
:100F3000261737074807AB07B0E809F0BB0B802D31
:100F4000BF01FF2793585F4F2AF09E3F510568F07D
:100F500092C0DCC05F3FECF3983EDCF3869577955A
:100F60006795B795F7959F5FC9F7880F911D96957F
:100F7000879597F90895E1E0660F771F881FBB1FDB
:100F8000621773078407BA0720F0621B730B840B88
:100F9000BA0BEE1F88F7E095089504D06894B1115C
:100FA000B5C0089598D088F09F5790F0B92F992731
:100FB000B751A0F0D1F0660F771F881F991F1AF064
:100FC000BA95C9F712C0B13081F09FD0B1E0089551
:100FD0009CC0672F782F8827B85F39F0B93FCCF3D2
:100FE000869577956795B395D9F73EF4909580955A
:100FF000709561957F4F8F4F9F4F0895E89409C07A
:1010000097FB3EF490958095709561957F4F8F4F3B
:101010009F4F9923A9F0F92F96E9BB279395F69551
:10102000879577956795B795F111F8CFFAF4BB0FCF
:1010300011F460FF1BC06F5F7F4F8F4F9F4F16C033
:10104000882311F096E911C0772321F09EE8872FBD
:10105000762F05C0662371F096E8862F70E060E079
:101060002AF09A95660F771F881FDAF7880F9695F2
:10107000879597F9089597F99F6780E870E060E099
:1010800008959FEF80EC089500240A941616170621
:1010900018060906089500240A9412161306140669
:1010A00005060895092E0394000C11F4882352F0CC
:1010B000BB0F40F4BF2B11F460FF04C06F5F7F4F84
:1010C0008F4F9F4F089557FD9058440F551F59F06B
:1010D0005F3F71F04795880F97FB991F61F09F3F25
:1010E00079F087950895121613061406551FF2CF4E
:1010F0004695F1DF08C0161617061806991FF1CF9E
:1011000086957105610508940895E894BB276627C4
:101110007727CB0197F908950BD0C4CFB5DF28F01E
:10112000BADF18F0952309F0A6CFABCF1124EECF8C
:10113000CADFA0F3959FD1F3950F50E0551F629F32
:10114000F001729FBB27F00DB11D639FAA27F00D20
:10115000B11DAA1F649F6627B00DA11D661F829F47
:101160002227B00DA11D621F739FB00DA11D621F2C
:10117000839FA00D611D221F749F3327A00D611D49
:10118000231F849F600D211D822F762F6A2F11242B
:101190009F5750408AF0E1F088234AF0EE0FFF1F7E
:1011A000BB1F661F771F881F91505040A9F79E3FB5
:1011B000510570F060CFAACF5F3FECF3983EDCF3AF
:1011C000869577956795B795F795E7959F5FC1F7F2
:1011D000FE2B880F911D9695879597F90895EE0F30
:1011E000FF1F881F8BBF0790F691E02D1994F8948C
:0211F000FFCF2F
:1011F200000000004202AD01DA018E020B02E90199
:10120200FD010000000089035D03B70333035603A9
:04121200430334035B
:00000001FF
